:060000000219FD02034598
:03000B0002008070
:030013000203588D
:03001B000200B030
:03002B00020313BA
:03005B0002036736
:0300730002033253
:10008000C0D075D01018B8CF0408208507B2858677
:100090008AD0D03253A4DFD285C2A98F8E7589AAA7
:1000A000C289C28B758A00D2A8D2AAC228D0D03207
:1000B000C2A8C28E85588BC0D075D008C0E0C0F0F1
:1000C000C2CAA9CCAACDD2CAC3E99559F9EA955AB0
:1000D0007049C3E9955B4043955B503FB8103C784D
:1000E00000A9577D00E2FEC39DC399402E99EC33D1
:1000F000FC08E2FDC39EC399402199EC33FC08E261
:10010000FEC39DC399401499EC33FC08E2FDC39EE5
:10011000C399400799EC33FC088002806AE2FEC371
:100120009DC399406299EB33FB08E2FDC39EC399DE
:10013000405599EB33FB08E2FEC39DC399404899B3
:10014000EB33FB08E2FDC39EC399403B99EB33FBC5
:1001500008E2FEC39DC399402E99EB33FB08E2FDF4
:10016000C39EC399402199EB33FB08E2FEC39DC3B4
:1001700099401499EB33FB08E2FDC39EC3994007F5
:1001800099EB33FB08801E0530E53070021530C353
:10019000E5309440400AD225755C00755D0061032E
:1001A00075310A6103E2FEC39DC39940DA99EA33CF
:1001B000FA08E2FDC39EC39940CD99EA33FA08E2FA
:1001C000FEC39DC39940C099EA33FA08E2FDC39E7D
:1001D000C39940B399EA33FA08EBC46B6C6A3027D1
:1001E00001F4540F70A1C3EBF4FA9432FBECF45415
:1001F0000F9400FC5018EA7C007B00600CC3135085
:1002000007B55C05055D8006E4F55C755D00302290
:100210001BC3EB94D0F5F0EC94074003ABF0FC303B
:100220002101B39226C3EB33FBEC33FCEB54F04CCF
:10023000C475F00384FAEC13FCEB132AFBEC3400D6
:10024000FC30E3047BFF7C07201C27301124EC707A
:100250000C798187F0C3EB95F05002ABF0E5376085
:100260001175F0C0A42BFBEC3400FC30E3047BFFE1
:100270007C07EB54F84CC423F97007EB7004D225CB
:10028000800E753200C225C3E92410500274FFF9B4
:10029000E53060021530C3E54DFD954E4002AD4E90
:1002A000C3ED995008ED75F008A4FBACF08CF0EBB1
:1002B000A2F013A2F113F4F9EC0303F45401FAC30E
:1002C000E9940AFBEA9400FC5005E4FBFC800DC3B2
:1002D000EB9550EC95514004AB50AC5189FB8BE948
:1002E0008AFC8CEA75310A302719302816758E0180
:1002F0007589A2D28543A420780085648AC28DD2F4
:10030000A980097800758A00D2A8D2AAD0F0D0E0DE
:10031000D0D032C0E0C2CF053CD223E5317004D248
:100320002580021531302507E5320460020532D000
:10033000E032C2AF53E67F53917F7592FA7593FF17
:10034000C218D2AF32C0E0E58A85588BC0D075D0D4
:1003500008F208D0D0D0E032C2AAD28EC2CA85CC70
:100360005985CD5AD2CA32327A007901801E7A007C
:10037000790580187A00790A80127A007964800CF5
:100380007A0079C880067A0079FA8000090A800923
:10039000781874FFD5E0FDD8F9D9F5DAF3227A425E
:1003A0007B3580247A2D7B4D801E7A267B5C8018DD
:1003B0007A197B8C80127A147BAF800C7A427B1E78
:1003C00080067A2D7B2C8000E5547001227902E4AE
:1003D000D293D5E0FDD292D5E0FDC292D5E0FDC228
:1003E00093D5E0FDE920E002D29030E002D294E51E
:1003F00054D5E0FDE920E002C29030E002C29474DE
:1004000096D5E0FDD9C9EA78C8D8FED5E0F9DBBDBC
:10041000D29322719E71A471AA2271C2719E22711F
:10042000AA71A4719E2271C271BC2279998754B8B5
:100430000104719E8017B8020471A48010B80304EF
:1004400071AA8009B8040471B0800271B6799887E6
:100450005422901A70E493F4601D7C3E901A74E468
:1004600093A3FB6012E493FA600471C88006EBF971
:100470007A00718CA3DCE82278A5E6F954037000B9
:10048000E9540C7000E954307000E954C070002247
:10049000C290C292C294D291D293D29575D5FF22C6
:1004A000201E32A84F20102A78FFE53B6024E54348
:1004B000602074FF301102747F8543F084853BF027
:1004C000A4F8C5F06004754EFF22C3E8954F5002B2
:1004D000A84F884E22C3E54294A0E5439400E54E20
:1004E0005003148001046002F54E221023012205FE
:1004F00067E5675407600122E56720E335E5526050
:10050000267553FFE5BE601FE5BDC39552401875C3
:1005100053C8940440117553969404400A7553646B
:100520009404400375533220240122853865756692
:100530000C22E552600FC3E54D9553600840041549
:100540004D8002054D302473E5675438B40829C343
:10055000E53994785003E4800475F00984A213927D
:10056000E7A21492E6A21592E5C213C214C215F5D1
:100570006575660E75E89022B4180A75658875660B
:100580000875E89022B4280A7565AA75660A75E8A8
:10059000902278A6B6010DE5BE7003E48018E5BD93
:1005A00094148012E5BE700AE5BDC394EB5007E4D5
:1005B0008004E5BD2414F56575660275E890227522
:1005C00042007543F022C2AFC2CAA8CCA9CDAA3C52
:1005D00030CF010AD2CAD2AFC3EA13FAE913F9E85D
:1005E00013F8201014C3E8953D883DF8E9953E893D
:1005F0003E547FF9301E36C1E0AB3DAC3EAD3F8886
:100600003D893E8A3FC3E89BE99CEA9D547F600890
:100610007542FF7543FFC1AFAE40AF418B408C4187
:10062000C3E89EF8E99FF9AA42AB438011AA42AB06
:1006300043C3EB9404404894044013201126C3EBB9
:1006400013FDEA13FCC3ED13FDEC13FC804AEBC46D
:1006500023FCEAC423541F4CFC7D00C3E913F9E8D2
:1006600013F88034EBC423FC541FFDEC54E0FCEA87
:10067000C423541F4CFCC3E913F9E813F88019EBA9
:10068000C4FCEAC4540F4CFC7D00C3E913F9E81321
:10069000F8C3E913F9E813F8C3EA9CFAEB9DFBEA07
:1006A00028F542EB39F54350067542FF7543FFC309
:1006B000E54394025002D21EE543C4FA540FFBEA0C
:1006C00054F0FAE542C4540F4AFAC3EA9402FAEB32
:1006D0009400FB40057048EA70457A017B00803F3A
:1006E000AA42AB43EBC4FCEAC4540F4CFCC3EA9CE3
:1006F000FAEB9400FBE80303543F2AFAEB3400FBC7
:100700008A428B43C394024002C21EEBC4FE7B00AC
:10071000EAC4540F4EC39402FA400270027A0120D8
:100720002806301808120AFF30180280FB8549920B
:10073000854A93D21843E6807892E6FFC3E49AF89C
:10074000E49BF9C3E833F8E933F9201E7F30100445
:100750007F038015C3E5389482400E0F941E40013C
:100760000FC3EF940640027F05E8FAE9FBD3E913D3
:10077000FDE813FC8C478D488849894AC3EF9403F0
:10078000602BEF20E00CE82CF8E93DF9ECFAEDFBEA
:10079000800BE8D338F8E939F97AFF7BFFC3EF948F
:1007A00003400A8A4B8B4C884589468050884B8988
:1007B0004C8A458B46301045754BF0754CFF75479C
:1007C000F07548FF7549F0754AFF8031E8FAD31398
:1007D000FC8C478849C3EF9403601EEF20E007E8D4
:1007E0002CF8ECFA8007E8282401F87AFFC3EF948C
:1007F0000340068A4B88458004884B8A452028059B
:1008000030180751FF30180280FB753502D21843AB
:10081000E68030112DA842A943C3E913F9E813F883
:10082000301004E92440F9C2AF53E67F759100C34C
:10083000E498F594E499F595759104D21843E6800F
:10084000D2AF2275F000301D0E75F040800975F0B2
:1008500040301D0375F000D2197544007A027B0206
:10086000201E1D301102C2193010067A367B3680E8
:100870000F7B28E543700104FAC3942840027A28CC
:10088000201810E544600C301003D53504D21A80CE
:1008900066110D0544E59B5440B5F00DE53460BC90
:1008A0002019B9DADBC21A804E20100B2019110A68
:1008B000C3EA9B40CB80A50AC3EA9B40011A80C0D3
:1008C000C21953E67F759100301E1175940075951D
:1008D000F0759104D21843E68002085CE5437EFF80
:1008E000C3334009C3334005C3334001FEC3E49E14
:1008F000759400F59580DAC2AF53E67F8545928501
:100900004693759100854B94854C95759104D2184A
:1009100043E680D2AF201018301A17201114201D82
:100920001120190EC2AF12049015811581021272A6
:10093000053422E53875F007A430190405F0D21308
:10094000A2F013A2F113A2F213F538C39478500366
:10095000753878C3E53895394003853839C3E538AB
:10096000953A400BD214C290C292C29475D5FF2022
:10097000280530180751FF30180280FB8547928503
:100980004893D21843E6802220120FC2AFD293C2FE
:100990009175D5CFD2AF759F0322C2AFD293C295C6
:1009A00075D5FCD2AF759F032220120FC2AFC2943F
:1009B00075D5F3C291D2AF759F1322C2AFC29075A5
:1009C000D5F3C295D2AF759F232220120FC2AFD2AA
:1009D00091C29575D5F3D2AF759F2322C2AFD29540
:1009E000C29175D5F3D2AF759F132220120FC2AFFB
:1009F000C29275D5FCC295D2AF759F0322C2AFC219
:100A00009275D5CFC291D2AF759F032220120FC22B
:100A1000AFD295C29375D5FCD2AF759F1322C2AFEA
:100A2000D291C29375D5CFD2AF759F232220120FDA
:100A3000C2AFC29075D5CFC293D2AF759F2322C2E9
:100A4000AFC29475D5FCC293D2AF759F1322743296
:100A5000A28540032085F750033085F2D5E0F3925C
:100A60002722E55C700122F8C39406500FC2AF1232
:100A7000049012042B120380D2AF807CC3E55D94F6
:100A800006407BB80704C221806EB80804D22180DA
:100A900067B80904C2228060B80A04D2228059B81B
:100AA0000D0A75650075660ED224804CB80E0A7565
:100AB00065FF75660EC224803FB8140C7988E71470
:100AC000A2E09221C22A8030B8150D7988E714A2DD
:100AD000E0B39221D22A8020B80C1DE4A22192E03A
:100AE000A22292E1047988F77555A57556F1B17483
:100AF000755500755600D2AF755C00755D0022C05B
:100B0000D075D010BE0039E566702EC2AFE54285C3
:100B10004327D2AFA23813F9A2391329FAE52703E4
:100B2000C2E7F903C2E739FBE527232354FCFCC3E2
:100B3000EA9CF526EB9400F5270E201803D0D0226E
:100B4000BE0124E5667010E527705DE5267011751D
:100B5000270F7526FF80098565268566277566003F
:100B60000E201803D0D022BE0215E526C4652665E6
:100B700027F478D0A65E91250E201803D0D022BE8F
:100B8000030BE52691250E201803D0D022BE040CBD
:100B9000E526C491250E201803D0D022E527912503
:100BA000087E00D0D0D2282220E71620E61D20E5BE
:100BB0002720E43420E34120E25020E15CE5268058
:100BC0009FA23733F52675270F8095A23733A236BB
:100BD00033F52675270D8088A23733A23633A23528
:100BE00033F52675270B6160E52654F0C23C452796
:100BF000C4F5267527096160E526A23813A23913CA
:100C0000A23A13F5267527076160E526A23813A2DC
:100C10003913F5267527056160E526A23813F526F8
:100C20007527036160540F23900C2C73814C8156FF
:100C300081638174817E818B819581A981B681CA0E
:100C400081D181E281ECA103A10DA12108A6600858
:100C5000A65E08A65E2208A65E08A65F08A65E0835
:100C6000A65E2286F0E55FB5F002E560F608A660B4
:100C700008A65E2208A65E08A66008A65E2208A650
:100C80005F08A65E08A65E08A65E2208A65F08A604
:100C90005F08A65E2286F0E55FB5F002E560F60823
:100CA000A65E08A65F08A65E2208A65E08A65E08E5
:100CB000A65F08A65E2286F0E55FB5F002E560F665
:100CC00008A65F08A65E08A65E2208A66008A65FC2
:100CD0002286F0E55FB5F002E560F608A65F08A69B
:100CE0005F2208A65E08A65F08A65F2286F0E55F81
:100CF000B5F002E560F608A65E08A65E08A65E08E6
:100D0000A65E2208A65F08A65E08A65F2286F0E51A
:100D10005FB5F002E560F608A65E08A65E08A65F6D
:100D20002208A65E08A65E08A65E08A65F22901AA4
:100D30000D7820B1B4E520B4550AA3B1B4E520B4D0
:100D4000AA0280127555A57556F1D13BB17475553F
:100D500000755600801D901A0378807B0AB1B4A3F9
:100D600008DBFA901A0F788C7B1CB1B4A308DBFA6D
:100D7000901A2B22C2AFB1F7D119B1D4901A0074D6
:100D800000B1B9A37415B1B9A374D0B1B9901A0365
:100D900078807B0AB1B8A308DBFA901A0F788C7BB5
:100DA0001CB1B8A308DBFAD10AD12CB1E8901A2BF8
:100DB00012038022E493F622E6438F01538FFDFF56
:100DC000C3E583941C400122EF8555B78556B7F0E3
:100DD000538FFE22438F02438F018555B78556B747
:100DE000901A0DF0538FFC22901A0D7455B1B990E2
:100DF0001A0E74AAB1B9227A3079D07820901A40AC
:100E0000B1B4E520F709A3DAF7227A3079D0901A45
:100E100040E7B1B909A3DAF9227A8C7900782090F9
:100E20001A70B1B4E520F309A3DAF7227A8C7900BD
:100E3000901A70E3B1B909A3DAF922788076FF0835
:100E400076FF0876010876FF0876460876FF087672
:100E50000D0876300876020876FF08080876FF0845
:100E600076640876FF0876FF0876FF0876FF087636
:100E7000030876FF0876FF0876FF0876FF0876FFFE
:100E800008760F0876500876050876FF087602087F
:100E900076FF0876FF0876FF0876000876FF08766A
:100EA000FF0876FF087600087600087601087600CD
:100EB000227888E614A2E19222A2E092217884743A
:100EC0005096500276507886740D965002760D86B4
:100ED0003B789CE6753AFFB40203753AA0B403036D
:100EE000753A8275520078A0E6F9600F78A6B601CF
:100EF000047453800274282409D9FCF5527898862A
:100F000054788DE623F95401F551E954FEF550B6B5
:100F1000FF037550FF227555007556007597DE75F5
:100F200097AD7581B043FF8075EF0675A900120477
:100F3000907580FF75F1F075A4007580FF75D4FF82
:100F400075902A75F23F75A53F75902A75D5FF7586
:100F5000A60175A72075F30175CC0175A70075E38F
:100F60004075E202120490E4F8F6D8FDD13BB12EB0
:100F7000D1B1C2AF12037A12045212047812037A6A
:100F8000C2AF75550075560012049075A91375A768
:100F90001075C10075A700780979007A0030850CBA
:100FA000DAFBD9F9D8F712041A021C0030290E1204
:100FB0000413120386120386120386C22975885110
:100FC000758E017589AA758C00758D0075C80475BC
:100FD000910475D84075D90875F781759E07759687
:100FE0000075DA4275DB42759B80759D00759D40EA
:100FF00078A6B6010575D11C800375D10C75BCB9F6
:1010000075BB1075E88075B201120368120A4E753F
:10101000E4D530270375E45DC213C214C215C2289B
:10102000C22475A82D75E68075B803D2AF758E0CF5
:10103000755880755710755B50755EF7755FE7756D
:1010400060D67564E17561EB7562CA7563A9753028
:101050000A12037AE530602B7558C0755708755B26
:1010600028755EFF755FF77560EF7564E17561FB6C
:101070007562EB7563DA75300A12037AE530600346
:10108000020F80C0D075D010AF8ED0D0D229753766
:1010900000C2AF1203BCD2AFC3E532940A40F9C21A
:1010A000AF1203C2D2AFE4F542F543F55CF55DF54E
:1010B00033F53CC3E53C945E4033753C0005337822
:1010C0009AE67814146012782814600D786414601D
:1010D0000878C8146003753300C3E53398400E15D3
:1010E000337804C2AF12049012042BD2AF2028062A
:1010F000120AFF1204EB30250CE5317003020F8059
:10110000120A6280AE12037A2025A878A7B60108D9
:10111000202405120426809BC2AF120490E475229D
:10112000007523007538007539007566007984876D
:101130004F854F4E854F4D854F5375A71075C13064
:1011400075A70075A903C3E55833F558C3E55B33AC
:10115000F55BC3E55733F557E55EC561F55EE55FC1
:10116000C562F55FE560C563F56075643CA22192D8
:1011700012302204A2269212D210D21175340075B8
:10118000360C120A0C120A2D1205BF1205C61205E2
:10119000BF1205C61205BFD2AF12084E1209331294
:1011A00009881205C61208431204A0120933120955
:1011B000A91205C612084E1209331209CA1205C631
:1011C0001208431209331209EB1205C612084E1217
:1011D0000933120A0C1205C6120843120933120A07
:1011E0002D1205C61204EB301135301014854F4D09
:1011F000854F4EC3E5349418500530259C8078C245
:1012000010201D1BE53614600AF53630258B202290
:10121000888064C211754DFF7553FFD21C219975EA
:101220003700D21B30251320220C79A4E76007C3B6
:10123000E53294035041E531603D202209C3E54386
:1012400094F050332199201D12201205202605808C
:10125000EC2026E9D21D854F4E21C0854F4EC3E5B7
:10126000439440400BC21DA2269212D21175361231
:101270002199201B020537C2AF1204907522007518
:10128000230075A91375A71075C10075A700D3E5D4
:101290005813F558C3E55B13F55BC3E55713F557D2
:1012A000E55EC561F55EE55FC562F55FE560C56356
:1012B000F5607564E1202520D215C3E5379403500D
:1012C0000612037A021118D2AF202A02C224C2AF3A
:1012D00012041FD2AF021083D2AF202A02C224759B
:1012E000370078A4E66006C291C293C2950210A6A8
:1019FD00020F160015D0FFFF01FF46FF0D3002FF4D
:101A0D0055AAFF64FFFFFFFF03FFFFFFFFFF0F500E
:0F1A1D0005FF02FFFFFF00FFFFFF00000100FFBA
:101A4000234F5F485F31302320202020202020209A
:101A500023424C48454C492445464D3842323123B7
:101A6000426C75656A617920282E312052433129F4
:011A7000FF76
:101C0000C2AFC2D37597DE7597AD7581C075A90057
:101C100043FF80752438752503B1F47529A5752A0D
:101C2000F143F12053A4DFD28575D4FF75E3407DE5
:101C3000FA780379E67C10752200752300901E5F08
:101C40007B06752498752501D2D3780079007A0037
:101C50007B0130850CD8FBD9F9DAF7DBF5C2D381EB
:101C6000D0C2D3208508D8FBD9F9DCF781D03085E4
:101C700008D8FBD9F9DCF781D0B1B4E493A3C39AB7
:101C80006004DDAD81D0DBDBB1A6600281317B0871
:101C9000E493FAA3B187DBF87A30B1877522007537
:101CA0002300B1A6EAFCEBFDC3ED94FE400EB1A605
:101CB0008A278B28ED30E0048A828B83B1A67AC212
:101CC00070D8C3ED94FE601C50CEBD002CEC6012A9
:101CD0007520007521FF752900752A00021E01027A
:101CE00000008100A827A9280809D804D90281F694
:101CF000B1AAEAF281EA0D81BCC3ED94035051ED23
:101D0000A2E092007AC5C3E5829400E583941C505A
:101D100089200010438F02438F018529B7852AB798
:101D2000F0300027A827A9280809438F01538FFD09
:101D3000D804D902A14BC3E583941C4003A3A1306E
:101D4000E28529B7852AB7F0A3A130538FFC81988B
:101D50007AC1BD030CE493A3FAB16BDCF8B16381E3
:101D600098819AAA22AB23B187EBFAEA6222752600
:101D700008C3E52313F523E52213F5225006632358
:101D8000A0632201D526EAB1F4B1F475260AEAF47B
:101D9000200102D285300102C285B1F4C313400292
:101DA000C201D526EB22B1AAEAFB208502A1AA3006
:101DB0008502A1AF752608AE24AF25C3EF13FFEE51
:101DC00013FEB1F8B1F4C3EA133085024480FA304F
:101DD000E703632201C3E52313F523E52213F5226C
:101DE00050066323A0632201D526D9E52265236529
:101DF00023F52222AE24AF250E0FDEFEDFFCD2013A
:101E0000227580FF75F1F075A4007580FF75D4FF11
:101E100075902A75F23F75A53F75902A75D5FF75A7
:101E2000A60175A72075F30175CC0175A7007597FC
:101E3000DE7597AD759B0075D80075DA0075DB000F
:101E400075E80075E300C2AF75A72043C60443C61A
:101E50008043D11075A70075C908758702C101427A
:0D1E60004C48656C6934373164E8B2060106
:00000001FF
